{
    "contractName": "MyContract",
    "abi": [
        {
            "inputs": [
                {
                    "internalType": "string",
                    "name": "_value",
                    "type": "string"
                },
                {
                    "internalType": "string",
                    "name": "_name",
                    "type": "string"
                }
            ],
            "stateMutability": "nonpayable",
            "type": "constructor"
        },
        {
            "inputs": [],
            "name": "name",
            "outputs": [
                {
                    "internalType": "string",
                    "name": "",
                    "type": "string"
                }
            ],
            "stateMutability": "view",
            "type": "function"
        },
        {
            "inputs": [],
            "name": "value",
            "outputs": [
                {
                    "internalType": "string",
                    "name": "",
                    "type": "string"
                }
            ],
            "stateMutability": "view",
            "type": "function"
        }
    ],
    "bytecode": "608060405234801561001057600080fd5b5060405161048d38038061048d83398101604081905261002f91610112565b600061003b83826101fe565b50600161004882826101fe565b5050506102bd565b634e487b7160e01b600052604160045260246000fd5b600082601f83011261007757600080fd5b81516001600160401b038082111561009157610091610050565b604051601f8301601f19908116603f011681019082821181831017156100b9576100b9610050565b816040528381526020925086838588010111156100d557600080fd5b600091505b838210156100f757858201830151818301840152908201906100da565b838211156101085760008385830101525b9695505050505050565b6000806040838503121561012557600080fd5b82516001600160401b038082111561013c57600080fd5b61014886838701610066565b9350602085015191508082111561015e57600080fd5b5061016b85828601610066565b9150509250929050565b600181811c9082168061018957607f821691505b6020821081036101a957634e487b7160e01b600052602260045260246000fd5b50919050565b601f8211156101f957600081815260208120601f850160051c810160208610156101d65750805b601f850160051c820191505b818110156101f5578281556001016101e2565b5050505b505050565b81516001600160401b0381111561021757610217610050565b61022b816102258454610175565b846101af565b602080601f83116001811461026057600084156102485750858301515b600019600386901b1c1916600185901b1785556101f5565b600085815260208120601f198616915b8281101561028f57888601518255948401946001909101908401610270565b50858210156102ad5787850151600019600388901b60f8161c191681555b5050505050600190811b01905550565b6101c1806102cc6000396000f3fe608060405234801561001057600080fd5b50600436106100365760003560e01c806306fdde031461003b5780633fa4f24514610059575b600080fd5b610043610061565b60405161005091906100fc565b60405180910390f35b6100436100ef565b6001805461006e90610151565b80601f016020809104026020016040519081016040528092919081815260200182805461009a90610151565b80156100e75780601f106100bc576101008083540402835291602001916100e7565b820191906000526020600020905b8154815290600101906020018083116100ca57829003601f168201915b505050505081565b6000805461006e90610151565b600060208083528351808285015260005b818110156101295785810183015185820160400152820161010d565b8181111561013b576000604083870101525b50601f01601f1916929092016040019392505050565b600181811c9082168061016557607f821691505b60208210810361018557634e487b7160e01b600052602260045260246000fd5b5091905056fea2646970667358221220179d4947769541c765a8c23c92b0e1e839e2e22833747c14ba730639f3e6f16a64736f6c634300080f0033",
    "sourcePath": "c:/Users/jtoll/Dropbox/AnaliticoProjects/blockchain/EthersProjects/Solidity/MyContract.sol",
    "compiler": {
        "name": "solc",
        "version": "0.8.15+commit.e14f2714"
    },
    "functionHashes": {
        "name()": "06fdde03",
        "value()": "3fa4f245"
    },
    "gasEstimates": {
        "creation": {
            "codeDepositCost": "89800",
            "executionCost": "infinite",
            "totalCost": "infinite"
        },
        "external": {
            "name()": "infinite",
            "value()": "infinite"
        }
    }
}